:020000040800F2
:10000000B81000204501000801190008F91800087F
:10001000FD18000815130008E32100080000000087
:10002000000000000000000000000000C51A0008E9
:100030004715000800000000AD190008051C000865
:100040005F0100085F0100085F0100085F01000810
:100050005F0100085F0100085F0100085F01000800
:100060005F0100085F0100085F0100081913000824
:100070005F0100085F0100085F0100085F010008E0
:100080005F0100085F0100085F0100085F010008D0
:100090005F0100085F0100085F0100085F010008C0
:1000A0005F0100085F0100085F0100085F010008B0
:1000B0005F0100085F0100085F0100085F010008A0
:1000C0005F0100085F0100085F0100085F01000890
:1000D0005F010008F11D00085F0100085F010008D2
:1000E0005F0100085F0100085F0100085F01000870
:1000F0005F0100085F0100085F0100085F01000860
:100100005F0100085F0100085F0100085F0100084F
:100110005F0100085F0100085F0100085F0100083F
:100120005F0100085F0100085F0100085F0100082F
:10013000DFF80CD000F00AFF00480047912B0008C0
:10014000B81000200648804706480047FEE7FEE753
:10015000FEE7FEE7FEE7FEE7FEE7FEE7FEE7FEE777
:10016000091C0008310100082DE9F04F4FF0000C88
:100170004FF0000301EB1C6EBEF90250BEF90040C7
:100180000EF5807EBEF90290BEF900800EF5807EED
:10019000BEF90270BEF900600EF5807EBEF902B0B5
:1001A000BEF900A00EF5807ED044D944A8EB4A0ADF
:1001B000A9EB4B0B4FEAA4044FEAA50504EBA604F8
:1001C00005EBA705A4EB6606A5EB670704EBA804FF
:1001D00005EBA905A4EB6808A5EB690906EBAB06DE
:1001E000A7EBAA07A6EB6B0B07EB6A0A458020F882
:1001F000044B478020F8046BA0F8029020F8048B91
:10020000A0F802A020F804BB03F1010393FAA3FCB9
:10021000402BAFD1A0EB82014FF0100312090FF277
:10022000361000F1000006B403EB430C6144A2F564
:10023000803202EB8332B1F90250B1F90040A1EBF8
:100240000301B0F902B0B0F900A000F10400A5EB81
:10025000040E0EFB0BFC0AEB4B0E05FB0ACB04FB5A
:100260000ECAB1F90250B1F90040A1EB0301B0F997
:100270000290B0F9008000F10400A5EB040E0EFB23
:1002800009FC08EB490E05FB08C904FB0EC8B1F9CF
:100290000250B1F90040A1EB0301B0F90270B0F9CE
:1002A000006000F10400A5EB040E0EFB07FC06EB5A
:1002B000470E05FB06C704FB0EC6B1F90250B1F9A3
:1002C000004001F10001D044D944A8EB4A0AA9EB4F
:1002D0004B0B4FEAA4044FEAA50504EB264405EBBB
:1002E0002745A4EBE636A5EBE73704EB284405EBFE
:1002F0002945A4EBE838A5EBE93906EB2B46A7EB3B
:100300002A47A6EBEB3B07EBEA3A4D800C801944F9
:100310004F800E801944A1F80290A1F80080194482
:10032000A1F802A021F804BBB2F5803283DA03EB16
:10033000430C6144A2F101025FEA024E18BFA0EB38
:100340000C007FF476AF06BC4FEA830392087FF47B
:100350006AAFBDE8F08F00400000004000000040A0
:1003600000005DDD213BA3227E180000412D7EA50B
:10037000412D0000412D00C000405DDD82E75DDDC4
:10038000213B7EA5412D00400000004000000040C0
:100390000000AA2A94126B39460649327C0CA81137
:1003A0008E2349327C0CA3227E1821F77931AA2AA8
:1003B0009412A8118E235DDD213BA3227E1800003C
:1003C000412D95C6B13F461A2B1E58EE3735BEB4A7
:1003D000C53EA8118E235DDD213B63A97138DF087E
:1003E0009A28B7CDC53E7EA5412D0000412D00C005
:1003F000004063A92B1E21F77931BEB4C53EBEB4BF
:100400007C0C58EE373561AC213B95C6BAF9BAE59C
:1004100071383BA737355DDD82E75DDD213B7EA589
:10042000412D21F766D756D53F3D3BA78E23A81116
:10043000C9CAB7CDC53E61AC7E18AA2AC1C295C64D
:10044000B13FBEB47C0C0040000000400000004002
:1004500000001E3BB504693E9201C83C2403EB3505
:100460006409C83C24036B3946066C30060E1E3BFB
:10047000B504EB356409AA2A94126B394606493251
:100480007C0CAE240917AF37D607882E8D0F7E1E41
:100490005D1BEB356409AA2A941224188C1F1E34A4
:1004A000F10AB3269015A8118E2349327C0CA322A1
:1004B0007E18140B60276C30060E7E1E5D1B7104C7
:1004C000FB2A882E8D0F461A2B1EC7FD5A2E9D2CF7
:1004D0001211FE15E72021F77931AA2A9412A811EA
:1004E0008E2387F05334B2281314480D202602EAD5
:1004F000E536B3269015DF089A289CE32B39AE2405
:1005000009177104FB2A5DDD213BA3227E18000040
:10051000412D4ED7C53C9320EF198FFB6C2F78D11E
:10052000153E7E1E5D1B21F77931E2CB0F3F641C27
:10053000C61CB8F2683395C6B13F461A2B1E58EE5A
:10054000373597C1FB3F24188C1F02EAE536F0BC13
:10055000EC3FFE15E720BAE57138A6B8853FD51304
:100560003D2282E1DB39BEB4C53EA8118E235DDD9C
:10057000213B40B1AF3D790FDA244DD9423C2EAE3C
:10058000423C480D202656D53F3D8EAB823A140B97
:10059000602778D1153E63A97138DF089A28B7CD56
:1005A000C53EB1A71236A906CE2915CA4F3F78A677
:1005B00068337104FB2A95C6B13FBCA57630390279
:1005C000212C38C3EC3F7EA5412D0000412D00C0F9
:1005D0000040BCA5CE29C7FD5A2EF0BCEC3F78A642
:1005E00020268FFB6C2F09BAB13FB1A73D2257F9E6
:1005F00076304DB74F3F63A92B1E21F77931BEB43A
:10060000C53E8EABEF19ECF474325EB2153E2EAEE1
:100610009015B8F268332DB03F3D40B1121187F00C
:1006200053342EAE423CBEB47C0C58EE373561AC30
:10063000213BA6B8D6072BEC1236C8AADB39F0BC92
:10064000240302EAE53663A9713897C16EFEDCE740
:10065000B03734A8E53695C6BAF9BAE571383BA784
:100660003735E2CB0FF59CE32B3978A6683378D188
:1006700073F082E1DB39EDA579314ED7EDEB6DDF1B
:10068000823A99A56C2F5DDD82E75DDD213B7EA579
:10069000412D9CE33AE352DBB63B99A5FB2A02EAE3
:1006A00019DF4DD9423CEDA59A2887F026DB4ED7BD
:1006B000C53C78A6202621F766D756D53F3D3BA7F7
:1006C0008E23C7FDDFD363D3AF3D34A8E720710489
:1006D00094D078D1153E63A92B1E140B8CCD94CFEA
:1006E000723EC8AA5D1BA811C9CAB7CDC53E61AC90
:1006F0007E18241850C8E2CB0F3F2EAE90157E1EF8
:1007000025C615CA4F3F2DB09412AE244AC451C815
:10071000853F5EB28D0FAA2AC1C295C6B13FBEB455
:100720007C0C6C308EC1E2C4D43F4DB76409EB350C
:10073000B1C038C3EC3F09BA46061E3B2CC097C176
:10074000FB3FF0BC2403F0B480EA0102D40F420066
:10075000B2EB410F02D20246084611464A0042D08F
:10076000C30DDDB2C1F3C752AD1A202D35DAC1F386
:10077000160141F4000204B15242C5F1200602FA0A
:1007800006F12A411044B3EBD05F23D0C4B1012D50
:10079000A0EBC35009DCF0BC4FF0004202EAC352A8
:1007A000DBB200F5000000F0ABB9400000F1807052
:1007B00000EBC350A0F1807040EAD170490009E01D
:1007C000490841EAC071A0EBC35000F500004008A1
:1007D00000EBC350F0BC00F08AB96142012202EB89
:1007E0004101001BF6E7F0BC704781F00041AAE729
:1007F00080F00040A7E780EA010210B502F0004354
:10080000400022D04A001FD0010E01EB1261C0F35C
:100810005600C2F3560240F4000042F40002A0FB6E
:10082000022000047F39140400D0401C50EA12401A
:1008300001D44000491EC2B20C0604EBD010401C8B
:100840004008802A02D003E0002010BD20F0010003
:10085000002900DA0020184310BD30B480EA0102FC
:1008600002F0004530F0004221F0004013D090B17A
:10087000C30DD40DC2F31601C0F31600E41A41F4FF
:10088000000140F400027D34914201D3641C00E079
:100890004900002C02DA30BC002070474FF4000001
:1008A0000023914201D3891A034340084FEA4101D2
:1008B000F7D151B1914202D14FF0004105E002D28F
:1008C0004FF0010101E06FF0010103EBC450284437
:1008D00030BC00F00CB92DE9F04D81EA030404F0BE
:1008E000004B21F0004514464FF0000A23F0004170
:1008F00050EA050220D054EA01021DD0C5F30A5780
:100900000246C5F31303C1F31300C1F30A5640F4C2
:10091000801543F48013A7EB0608101BD64608F297
:10092000FD3873EB050002D308F1010801E09218CD
:100930005B41B8F1000F03DA00200146BDE8F08DFD
:1009400000204FF48011064684460EE0171B73EB1F
:10095000050705D3121B63EB050306434CEA010CA4
:1009600049084FEA300092185B4150EA0107EDD187
:1009700052EA030012D082EA040083EA0501084328
:1009800005D0101BAB4106D20122002306E0002255
:100990004FF0004302E06FF0010253101AEB060023
:1009A0004CEB085110EB0A0041EB0B01BDE8F04D98
:1009B00000F0D4B8C10F80EAE0700844CA0796235B
:1009C000002100F09DB820F00040C10DC0F31600DA
:1009D00040F400007F2901DA00207047962903DCEB
:1009E000C1F19601C840704796398840704700F0C1
:1009F000004230F000400AD0C10D01F56071C0F333
:100A0000160042EA0151C208400711437047002016
:100A10000146704701F0004330B421F0004150EA34
:100A2000010206D00A0DA2F56072C1F31301002A7B
:100A300002DC30BC00207047440F44EAC104C1000E
:100A4000E01830BC00EBC25000F051B8002801DBC8
:100A5000C0F10040002901DBC1F10041884270472C
:100A600030B50B46014600202022012409E021FA7E
:100A700002F59D4205D303FA02F5491B04FA02F57B
:100A80002844151EA2F10102F1DC30BD2DE9F05F12
:100A90000546002092469B468846064681464024ED
:100AA0001BE0284641464746224600F070FA53466E
:100AB0005A46C01A914110D311461846224600F0FA
:100AC00057FA2D1A67EB01084F46224601200021F4
:100AD00000F04EFA17EB00094E41201EA4F101046C
:100AE000DFDC484631462A464346BDE8F09F0029F0
:100AF000A8BF7047401C490008BF20F001007047A4
:100B000010B4B0FA80FC00FA0CF050EA010404BF03
:100B100010BC704749B1CCF1200421FA04F411FA59
:100B20000CF118BF012121430843A3EB0C01CB1D9D
:100B30004FEA00614FEA102042BF002010BC70470E
:100B400000EBC35010440029A4BF10BC7047401CE8
:100B5000490008BF20F0010010BC704710B5141EFA
:100B600073F1000408DA401C41F1000192185B4166
:100B70001A4301D120F0010010BD2DE9F04D92463D
:100B80009B4611B1B1FA81F202E0B0FA80F2203254
:100B9000904600F0EDF904460F4640EA0A0041EAAB
:100BA0000B0153465A46084313D0114653EA01003D
:100BB00019D0C8F14002504600F0E9F905460E464A
:100BC00050465946424600F0D3F9084305D001206B
:100BD00004E020463946BDE8F08D0020054346EA92
:100BE000E0762C4337430A986305E40AA0EB08003B
:100BF0000022FD0A44EA47540A3002D5002001468B
:100C0000E9E7010510196941DDE908450019694165
:100C1000BDE8F04DA2E72DE9FE4F804681EA0300D2
:100C2000C00F0C46009021F0004123F00045B8EBC6
:100C30000200A94105D24046214690461C460B467B
:100C4000024623F00040104347D0270DC7F30A00A7
:100C5000C3F30A510290401A019040286BDAC3F3A3
:100C6000130040F4801B0098924620B10023D2EB81
:100C7000030A63EB0B0B01985946C0F14002504642
:100C800000F076F906460D4650465946019A00F0A6
:100C90008EF910EB08006141002487EA115284EAC2
:100CA000E7731A4340D0009A62B3019A012A4FEACF
:100CB000075215DC001B61EB02014FF0004202EA13
:100CC0000752CDE90042001C41F5801132462B4607
:100CD000FFF753FF03B0BDE8F08F40462146F9E728
:100CE000001B61EB0201001C41F5801300185B4101
:100CF0002018A2F5001747EB030140EAD570B6199A
:100D00006D4111E06D084FEA360645EAC0754FEABD
:100D10000752001B61EB0201001C41F580114908DC
:100D20004FEA30000019514132462B4603B0BDE86E
:100D3000F04FFFF713BF0098012240000023D0EBD3
:100D4000020263EBE073009821464FEAE074B8EBCF
:100D5000000061EB0401E9E783F000435BE781F009
:100D6000004158E72DE9FE4F81EA030404F00044F6
:100D700021F0004100944FF0000B23F0004350EAB3
:100D800001045ED052EA03045BD0C3F30A54C1F3FA
:100D90000A552C44A4F2F3340194A0FB0254C1F38D
:100DA000130141F48011C3F3130343F4801301FBD7
:100DB000024400FB034E840A970A44EA815447EA3E
:100DC0008357A4FB076802958D0A05FB07854FEA48
:100DD000932C04FB0C542705029D4FEA065847EA62
:100DE0001637B5EB08056EEB070C870E920E47EA37
:100DF000811742EA8312A7FB0201B6EB0B0164EBF9
:100E000000042B0D43EA0C335E1844EB1C50DA4609
:100E10005146E7FB0201C5F313044FEA0B3343EAE3
:100E200014534FEA0432019C43EA0603A4F10C0474
:100E30000294009CCDE900B4FFF79FFE03B0BDE82B
:100E4000F08F00200146F9E72DE9F04D00231A4606
:100E50001B1A8A4103DB00200146BDE8F08DC1F377
:100E60000A52C1F3130141F480154FF0000BD10772
:100E700002D100186D41521E0027044640F2FF11B6
:100E8000384601EB620A3E468046024600204FF497
:100E9000801100F07CF8C2197141BB1846EB0100CB
:100EA000B4EB030C75EB000C04D3E41A65EB0005FE
:100EB00017460E46241908F101006D41804634287A
:100EC000E3DDF91946EB0600091BA84103D24FF0F8
:100ED000FF32134601E0002213461BEB070046EBEE
:100EE0000A51BDE8F04DFFF739BEC1F30A52C1F314
:100EF000130140F2FF3341F480119A4202DA0020DC
:100F00000146704740F233439A42A2F2334202DC78
:100F1000524200F03CB800F02BB8000030B5041E7F
:100F200071F1000404DB4FF00044404264EB010126
:100F3000141E73F1000405DB1C464FF000435242BF
:100F400063EB0403994208BF904230BD064C074D45
:100F500006E0E06840F0010394E807009847103489
:100F6000AC42F6D3FFF7E8F8FC2B00081C2C000875
:100F7000202A04DB203A00FA02F100207047914059
:100F8000C2F1200320FA03F3194390407047202A4E
:100F900004DB203A21FA02F00021704721FA02F323
:100FA000D040C2F120029140084319467047202AE0
:100FB00006DBCB17203A41FA02F043EAE07306E081
:100FC00041FA02F3D040C2F1200291400843194691
:100FD000704721B1826842F00102826003E08268BA
:100FE00022F001028260704721B1826842F480726F
:100FF000826003E0826822F480728260704721B1CF
:10100000826842F48012826003E0826822F48012D7
:1010100082607047014600208A6802F004020AB12B
:10102000012000E000207047014600208A6802F09D
:1010300008020AB1012000E00020704730B50246E6
:101040000020002350680F4C20400D790C6844EAC2
:1010500005242043506090680B4C2040D1E9025495
:101060002C434D7944EA450420439060D06A20F433
:1010700070000C7C641EE4B2234340EA0350D0624B
:1010800030BD0000FFFEF0FFFDF7F1FFF0B50446B4
:101090000D4600200021092D11DDE068A5F10A06AA
:1010A00006EB4607072606FA07F18843A5F10A066C
:1010B00006EB460603FA06F10843E0600CE02069FF
:1010C00005EB4507072606FA07F1884305EB4506B9
:1010D00003FA06F108432061072A0FDA606B561EF7
:1010E00006EB86071F2606FA07F18843561E06EB15
:1010F000860605FA06F10843606322E00D2A0FDA3E
:10110000206BD61F06EB86071F2606FA07F18843D9
:10111000D61F06EB860605FA06F10843206310E0A9
:10112000E06AA2F10D0606EB86071F2606FA07F114
:101130008843A2F10D0606EB860605FA06F1084380
:10114000E062F0BD816841F008018160704781680C
:1011500041F004018160704708B50121042000F0CE
:1011600037FC0820ADF8000000208DF80300694628
:10117000014800F0E9F908BD0008014010B5FFF78B
:10118000EBFF00F001F810BD00B591B00121084659
:1011900000F00EFC0121480200F01AFC3B4800F070
:1011A00005F93B4806903B480790002008904FF413
:1011B0008070099000200A9080200B9040000C90D5
:1011C00080000D9020200E9000020F9000201090C3
:1011D000012206212D4800F08FF906A92B4800F0C6
:1011E00094F90121294800F0D5F84FF4C06000F0CF
:1011F000D3FB0B208DF8000000208DF801008DF846
:10120000020001208DF80300684600F08DFB0020ED
:1012100001908DF808008DF80900039004900120DA
:101220008DF8140001A91A484C38FFF707FF002376
:101230000122032116484C38FFF728FF01211448EA
:101240004C38FFF7D1FE012111484C38FFF7C1FEA1
:101250000F484C38FFF776FF00BF0D484C38FFF7BA
:10126000E3FE0028F9D10A484C38FFF770FF00BFB1
:1012700007484C38FFF7CEFE0028F9D10121044879
:101280004C38FFF7BCFE11B000BD00000800024062
:101290004C240140B402002010B500F001F810BD4C
:1012A00000B587B00121C80200F092FB4720ADF8DD
:1012B00014003120ADF810000020ADF81600ADF894
:1012C00012008DF8180004A9114800F03FFD6020BD
:1012D000ADF800000120ADF802000420ADF80400D4
:1012E0000820ADF806000020ADF80800694608485F
:1012F00000F0D6FC0821064800F01EFD002104483D
:1013000000F0B2FC0121024800F0BAFC07B000BDB9
:10131000002C014000BFFEE710B500240021124858
:1013200000F038F800BF08E0104830F8140000045E
:101330000F4941F82400601C84B2FF2CF4DD4FF407
:1013400080720B490B48FEF70FFF00F08DF900F09B
:1013500005FA0121044800F01DF8042000F00CF803
:10136000022000F009F810BD08000240B40200207D
:10137000B4040020B408002000F0805111B10349EA
:10138000086001E002494860704700000404024020
:101390000000024021B1026842F00102026004E054
:1013A00002684FF6FE731A400260704701684FF6FC
:1013B000FE72114001600021016041608160C160E6
:1013C0004B49884208D14A490839496841F00F0120
:1013D000474A083A51608AE045491431884208D1A9
:1013E00043490839496841F0F001414A083A5160DF
:1013F0007DE03F492831884208D13D490839496894
:1014000041F470613A4A083A516070E038493C3121
:10141000884208D136490839496841F47041344A54
:10142000083A516063E032495031884208D130496E
:101430000839496841F470212D4A083A516056E054
:101440002B496431884208D129490839496841F457
:101450007001274A083A516049E0254978318842AD
:1014600008D123490839496841F07061204A083A97
:1014700051603CE01F49884206D1011F096841F0D4
:101480000F01021F116032E01A491431884208D15D
:101490001849091F096841F0F001164A121F11602E
:1014A00025E014492831884208D11249091F0968EA
:1014B00041F470610F4A121F116018E00D493C3170
:1014C000884208D10B49091F096841F47041094A53
:1014D000121F11600BE007495031884207D10549BE
:1014E000091F096841F47021024A121F11607047F8
:1014F00008000240080402401AB103680B4303606D
:1015000002E003688B430360704710B50022026855
:1015100047F6F0739A430C6A8B6823430C692343A4
:101520004C6923438C692343CC6923434C6A23438E
:101530008C6A23431A430260CB6843600B68836064
:101540004B68C36010BD70472DE9F041024600258D
:101550000026002000230024002791F803C00CF08F
:101560000F0591F803C00CF0100CBCF1000F03D074
:1015700091F802C04CEA050591F800C0BCF1000FDB
:1015800031D0146800202BE04FF0010C0CFA00F36E
:10159000B1F800C00CEA03069E4220D183004FF050
:1015A0000F0C0CFA03F7BC4305FA03FC4CEA0404E5
:1015B00091F803C0BCF1280F06D14FF0010C0CFAD2
:1015C00000FCC2F814C00AE091F803C0BCF1480F57
:1015D00005D14FF0010C0CFA00FCC2F810C0401C01
:1015E0000828D1D31460B1F800C0BCF1FF0F34DD7E
:1015F000546800202EE000F1080C4FF0010808FAB2
:101600000CF3B1F800C00CEA03069E4221D183001E
:101610004FF00F0C0CFA03F7BC4305FA03FC4CEA3D
:10162000040491F803C0BCF1280F05D100F1080CA7
:1016300008FA0CF8C2F8148091F803C0BCF1480F06
:1016400007D100F1080C4FF0010808FA0CF8C2F8B5
:101650001080401C0828CED35460BDE8F081416161
:1016600070470161704700002DE9F04F89B00024F8
:1016700066E0364830F824000FFA80FA334850F814
:1016800024004FEA204B5046FFF794F980464FF074
:101690008741FFF7B0F807464FF08E41FFF7DDF8BE
:1016A00005465846FFF786F980464FF08741FFF719
:1016B000A2F807464FF08E41FFF7CFF806463146B5
:1016C0003046FFF798F8294602902846FFF793F82E
:1016D00001900299FFF737F80390FFF788F9CDE9F9
:1016E000040101F065FA0022194BCDE90601FFF76C
:1016F000F2F80746FFF78EF981465CB94FF08E414C
:101700004846FFF778F80746FFF75DF9114941F8B9
:1017100024000AE04FF08F414846FFF76CF8074677
:10172000FFF751F90B4941F824000B48016848467E
:10173000FFF78CF902D20848C0F80090601C84B210
:10174000802C96DB09B0BDE8F08F0000B4080020C3
:1017500000007040B40A0020400000202DE9F04F46
:1017600089B000BF00BF4C49086DFFF723F908900E
:101770004949886FFFF71EF907904749D1F8A00043
:10178000FFF718F906904449886AFFF713F90590A6
:1017900042480068FFF72BF98046894605990846BC
:1017A000FFF729F8039006990846FFF724F80290FE
:1017B00007990846FFF71FF8834608990846FFF780
:1017C0001AF859460190FEF7BEFF82460299FEF7CD
:1017D000BAFF07460399FEF7B6FF0646FFF707F97B
:1017E00004460D4642464B4620462946FFF773F80D
:1017F0000646FFF70FF9049029492A4A049812680F
:1018000041F8220027480068401C26490860084625
:10181000006805283DD1224A51681068FEF793FF01
:1018200003901F4881680398FEF78DFF83461C488C
:10183000C1685846FEF787FF0746194801693846D0
:10184000FEF781FF06461849FFF707F88246174959
:101850005046FFF702F88246642001F04DF95046E9
:10186000FFF7C5F8064632460B4611A1144800F0B2
:10187000CBFC134800F028F812A000F0B5FC11A032
:1018800000F0B2FC0FA000F0AFFC0020054908609A
:1018900000BF09B0BDE8F08FB40A0020400000206E
:1018A000A00200203C0000200000A04000007A447C
:1018B00074302E7478743D2225322E316622000059
:1018C00060020020FF00000070B50446002510E013
:1018D000605D68B1615D074800F07FFC00BF80215A
:1018E000044800F0ADFB0028F9D0681CC5B200E048
:1018F00070BDEDE70038014000BFFEE700BFFEE726
:10190000704708B54FF4A06000F046F825208DF828
:10191000000001208DF801008DF802008DF8030011
:10192000684600F001F808BD70B5002100230F22C1
:10193000C47804B3154C246804F4E064C4F5E0648E
:10194000210AC1F10403CA40447804FA03F18478FF
:101950001440214309010E4C0678A155047804F087
:101960001F050124AC4005786D11AD0005F1E0259F
:10197000C5F8004109E0047804F01F050124AC40DB
:10198000044D0678761145F8264070BD0CED00E058
:1019900000E400E080E100E002490143024A1160F6
:1019A000704700000000FA050CED00E070470000F1
:1019B00029B1064A52690243044B5A6104E0034AC2
:1019C00052698243014B5A61704700000010024087
:1019D00029B1064A92690243044B9A6104E0034A22
:1019E00092698243014B9A617047000000100240E7
:1019F00030B500210022002400232D4D6D6805F034
:101A00000C0121B1042905D0082923D105E0294D75
:101A1000056022E0274D05601FE0254D6D6805F447
:101A20007012234D6D6805F48034022505EB924257
:101A30001CB9214D554305600BE01D4D6D6805F443
:101A400000351DB11C4D5543056002E0194D55434D
:101A5000056002E0174D056000BF00BF144D6D68C2
:101A600005F0F0010909154D6B5C0568DD40456026
:101A70000F4D6D6805F4E061090A104D6B5C456817
:101A8000DD4085600A4D6D6805F46051C90A0B4D53
:101A90006B5C4568DD40C560054D6D6805F44041EF
:101AA000890B074D6B5CC568B5FBF3F5056130BD6F
:101AB0000010024000127A0000093D0014000020CE
:101AC00024000020704710B500F002F810BD00009F
:101AD0000CB50020019000903348006840F480303D
:101AE0003149086000BF3048006800F400300090C1
:101AF0000198401C0190009818B90198B0F5A06FAA
:101B0000F1D12948006800F4003010B101200090A4
:101B100001E0002000900098012843D1234800688C
:101B200040F01000214908600846006820F00300DA
:101B300008600846006840F0020008601A484068E3
:101B4000194948600846406848600846406840F4C3
:101B5000806048600846406820F47C104860084671
:101B6000406840F4E81048600846006840F0807023
:101B7000086000BF0C48006800F000700028F9D031
:101B80000948406820F0030007494860084640685B
:101B900040F00200486000BF0348406800F00C00BD
:101BA0000828F9D10CBD00000010024000200240BE
:101BB00030B50146B1F1807F01D3012030BD21F065
:101BC0007F40401E4FF0E022506150170F22002846
:101BD00007DA13071D0E094B00F00F04241F1D55D3
:101BE00003E013071C0E064B1C5400BF00204FF0EF
:101BF000E0229061072010610020DFE718ED00E08F
:101C000000E400E07047000010B51348006840F0A1
:101C100001001149086008464068104908400E4913
:101C20004860084600680E4908400B4908600846AD
:101C3000006820F4802008600846406820F4FE0018
:101C400048604FF41F008860FFF73DFF4FF00060D1
:101C50000449086010BD0000001002400000FFF8B9
:101C6000FFFFF6FE08ED00E021B1028842F001021C
:101C7000028004E002884FF6FE731A40028070472B
:101C800031B1B0F8442042F40042A0F8442005E00D
:101C9000B0F84420C2F30E02A0F8442070470000C0
:101CA00070B5002400220023058C4FF6FE763540E7
:101CB0000584028C8388048B4FF68F752C40B51EEB
:101CC0002C400D882C43751E2A400D892A434D88CF
:101CD0002A43144DA8420BD0134DA84208D0134DEF
:101CE000A84205D0124DA84202D0124DA84213D1ED
:101CF0004FF6F7752A404D892A434FF6FB752A4067
:101D00008D882A434FF6FF652B404FF6FF552B4039
:101D10008D892B43CD892B4383800483CD88858691
:101D2000028470BD002C014000340140004001409D
:101D300000440140004801400A460021018B4FF653
:101D4000F773194011430183704700000022028895
:101D50001D4B98420ED01D4B98420BD0B0F1804FD6
:101D600008D01B4B984205D01A4B984202D01A4B10
:101D7000984204D14FF68F731A404B881A43174B81
:101D8000984207D0164B984204D04FF6FF431A40B2
:101D9000CB881A4302808B8883850B8803850A4B86
:101DA00098420BD0094B984208D00E4B984205D070
:101DB0000D4B984202D00D4B984201D10B7A03860D
:101DC0000123838270470000002C01400034014051
:101DD0000004004000080040000C004000100040DB
:101DE0000014004000400140004401400048014010
:101DF00010B540F22551624800F02FF9002870D04C
:101E00005F4800F0E5F9C4B2012C24D180215D487F
:101E1000FFF725FC04215B48FFF721FC10215948FE
:101E2000FFF71DFC20215748FFF719FC40215548BA
:101E3000FFF715FC02215348FFF711FC042151481C
:101E4000FFF70FFC20214F48FFF70BFC02214D4804
:101E5000FFF707FC8FE0022C20D180214948FFF7D3
:101E6000FEFB04214748FFF7FAFB10214548FFF726
:101E7000F6FB20214348FFF7F2FB40214148FFF7E2
:101E8000EEFB02213F48FFF7EAFB10213D48FFF738
:101E9000E8FB80213B48FFF7E4FB6CE0032C21D1F9
:101EA00080213848FFF7DBFB04213648FFF7D7FBDA
:101EB00010213448FFF7D3FB20213248FFF7CFFB36
:101EC00040213048FFF7CBFB02212E48FFF7C7FB2C
:101ED00020212C48FFF7C5FB80212A48FFF7C1FBD2
:101EE00049E04CE0042C28D127A000F07DF929A07E
:101EF00000F07AF927A000F077F926A000F074F935
:101F000020212048FFF7ABFB02211E48FFF7A7FB6B
:101F100080211C48FFF7A3FB10211A48FFF79FFB05
:101F200004211848FFF79BFB40211648FFF797FB59
:101F300020211448FFF795FB1DE0052C1BD1402103
:101F40001048FFF78CFB02210E48FFF788FB802129
:101F50000C48FFF784FB10210A48FFF780FB202183
:101F60000848FFF77CFB04210648FFF778FB402177
:101F70000448FFF776FB2146014800F02EF910BD1A
:101F800000380140000801406E302E76616C3D380B
:101F900038000000FF00000021B1828942F40052A5
:101FA000828104E082894DF6FF731A408281704776
:101FB00000B585B001210420FFF70AFD0121880347
:101FC000FFF706FD4FF40070ADF8100018208DF8F3
:101FD000130003208DF8120004A91748FFF7B4FA84
:101FE0004FF48060ADF8100004208DF8130004A9B0
:101FF0001148FFF7A9FA4FF4E13000900020ADF846
:102000000400ADF80600ADF80800ADF80C000C2097
:10201000ADF80A006946094800F06EF8FFF771FC58
:10202000012240F22551054800F041F80121034802
:10203000FFF7B2FF05B000BD0008014000380140C5
:1020400002460020B1F5007F00D100BF13880B408D
:102050000BB1012000E00020704770B5024600245B
:1020600000230025002040F66A16B14200D100BFCF
:10207000C1F3421501F01F03012606FA03F3012DF7
:1020800002D19689334006E0022D02D1168A3340F0
:1020900001E0968A33400C12012606FA04F41688F1
:1020A000344013B10CB1012000E0002070BDF0B548
:1020B0000346002400260025002040F66A17B94296
:1020C00000D100BF1846C1F3421401F01F060127DA
:1020D00007FA06F5012C01D10C3004E0022C01D1E5
:1020E000103000E014301AB107682F43076002E097
:1020F0000768AF430760F0BD2DE9F04786B005469D
:102100000E460024A24600BFA1460027B08900B1B8
:1021100000BF2F462C8A4CF6FF700440F088044321
:102120002C82AC894EF6F3100440B0883189084304
:10213000718908430443AC81AC8A4FF6FF400440E8
:10214000B0890443AC8201A8FFF752FC1F488742C4
:1021500002D1DDF810A001E0DDF80CA0A88900F4A0
:10216000004040B10AEBCA0000EB0A103168490098
:10217000B0FBF1F807E00AEBCA0000EB0A10316887
:102180008900B0FBF1F86420B8FBF0F004012009ED
:10219000642101FB1089A88900F4004040B132207D
:1021A00000EBC900B0FBF1F000F00700044308E0C9
:1021B000322000EB09106421B0FBF1F000F00F00B9
:1021C00004432C8106B0BDE8F087000000380140D0
:1021D00001468888C0F308007047C1F30802828076
:1021E000704700BFFEE700000FB4054B10B503A910
:1021F000044A029800F0E4F810BC5DF814FB0000FB
:10220000412B0008440000200FB4084B10B504A96E
:1022100002AA039800F0D4F8044602A9002000F0B6
:1022200066FC204610BC5DF814FB0000EF2A000895
:1022300002E008C8121F08C1002AFAD1704770478F
:10224000002001E001C1121F002AFBD170470000ED
:102250000149086070470000480000202DE9FF5F39
:10226000DDE90220010DDDF838B0024318D044F654
:102270001050A1F2FF3141430D140F98012820D0D6
:10228000A5EB0B00401C5FEA000A4FF00004474E2C
:10229000DFF81C91A046504616D5CAF1000728E089
:1022A0000F98012443A2012808D0002100980F9B19
:1022B000C0E90021C0E90243BDE8FF9F6FEA0B01BE
:1022C000F4E7CBF10000DEE7074612E0F80707D09D
:1022D0002246334640464946FEF744FD804689463D
:1022E0002246334610461946FEF73CFD04460E468C
:1022F0007F10002FEAD1DDE90201BAF1000F42465A
:102300004B4602DAFEF72EFD01E0FEF7E4FA044642
:102310000E460022284BFEF701FE03D84FF0FF3097
:10232000014607E00022254B20463146FEF773FCAC
:10233000FEF7DBFD102409E0002C0ADB0A22002353
:10234000FEF7A4FB019B30321A55641E50EA0102CD
:10235000F2D1641C019AC4F1110314440F9A012AAA
:1023600003D0012208430DD10AE0084304D0002025
:102370004FF0110B0F9080E7A3EB0B056D1E0DE0E6
:102380005B4504DD4FF0000205F1010504E003DACE
:102390004FF00002A5F10105002AECD000980F993A
:1023A000C0E90231C0E9004586E700000000244092
:1023B0000000F03F300000000000F0430000E03F6C
:1023C0002DE9FF4F95B09B468946064600250FE252
:1023D000252877D100242746F84A0121059400E0FA
:1023E000044316F8013F203B01FA03F01042F7D1F5
:1023F00030782A2811D06FF02F033078A0F1300206
:10240000092A16D8059A44F0020402EB820203EB73
:1024100042021044761C0590EFE759F8042B059210
:10242000002A03DA504244F40054059044F00204B8
:10243000761C30782E2816D116F8010F44F00404CB
:102440002A280DD06FF02F023078A0F13003092B2D
:1024500009D807EB870302EB4303C718761CF3E7A1
:1024600059F8047B761C30786C280FD006DC4C2899
:1024700017D068280DD06A2814D104E0742810D031
:102480007A280FD10DE044F400140AE044F48014DB
:1024900001E044F440147278824202D104F58014C1
:1024A000761C761C307866280BD013DC582877D041
:1024B00009DC002875D04528F6D04628F4D04728F6
:1024C0001AD19DE118E0632835D0642879D06528B9
:1024D00012D195E1702873D008DC6728F1D0692803
:1024E0006FD06E280DD06F2806D1B5E073282CD0A0
:1024F000752875D0782874D05A46179990476D1C66
:1025000075E1C4F30250022809D003280DD0D9F890
:10251000001004280DD00D6009F1040967E1D9F815
:102520000010EA17C1E90052F6E7D9F800100D8053
:10253000F2E70D70F0E719F8041B8DF80010002089
:102540008DF80100EA46012003E059F804AB4FF092
:10255000FF3061074FF0000102D40DE008F10101E6
:102560008846B9420FDA8045F8DB1AF808100029CE
:10257000F4D108E008F1010188468142FADB1AF83B
:1025800008100029F6D105985B46A0EB0807214604
:102590003846179A00F094FA284400EB080507E043
:1025A0004DE029E10DE01AF8010B5A4617999047C2
:1025B000B8F10108F7D25B4621463846179A13E175
:1025C00042E00A220092C4F302524FF0000A022AAB
:1025D00008D059F804CB032A4FEAEC710AD00DE079
:1025E00029E02AE009F1070121F00702F2E802C11F
:1025F000914609E00FFA8CFC4FEAEC71042A03D1F2
:102600004FFA8CFC4FEAEC71002907DA0A460021E8
:10261000DCF1000C61EB02012D2202E0220504D561
:102620002B228DF80420012203E0E20701D02022B2
:10263000F7E7904659E00A2102E010220DE0102150
:102640004FF0000A00910BE010224FF0000A44F016
:1026500004040827009203E008224FF0000A0092C9
:10266000C4F30252022A05D059F804CB0021032AF0
:1026700008D009E009F1070121F00702F2E802C1E0
:10268000914605E01FFA8CFC042A01D10CF0FF0CE6
:102690004FF00008220728D5702806D0009B83F051
:1026A000100353EA0A0305D00EE040228DF80420FF
:1026B000012208E05CEA010206D030228DF80420F5
:1026C0008DF8050002229046009B83F0080353EA30
:1026D0000A030AD15CEA010201D1620705D5302262
:1026E0008DF804204FF001087F1E582804D034A034
:1026F00003900EA802900DE036A0F9E7534660461D
:10270000009AFEF7C3F984460398825C0298401E43
:10271000029002705CEA0100F0D1029806A9081A42
:1027200000F1200A600702D524F4803400E001277C
:10273000574502DDA7EB0A0000E0002000EB0A018C
:10274000009005984144401A0590E00306D45B468A
:102750002146179A059800F0B3F90544002706E0D2
:1027600001A85A46C05D179990476D1C7F1C4745CC
:10277000F6DBE0030CD55B462146179A059800F07E
:102780009FF9054404E030205A46179990476D1C84
:102790000099481E00900029F5DC08E00298029993
:1027A0005A460078491C0291179990476D1CBAF15E
:1027B0000001AAF1010AF1DC65E10000092801002D
:1027C00030313233343536373839616263646566A7
:1027D0000000000030313233343536373839414269
:1027E000434445460000000000F058F90544761CBB
:1027F000307800287FF4ECAD19B02846BDE8F08FA2
:10280000620700D4062709F1070222F0070CFCE852
:102810000223E14603F000485FEA080C02D00FF201
:10282000702C0DE05FEA045C02D50FF2682C07E023
:102830005FEAC47C02D00FF2602C01E0AFF2700CB2
:102840004FF0FF3823F00043CDF850C065280CD07E
:1028500006DC452809D046281DD047283DD13DE05B
:10286000662818D067287ED138E00021112F01DBBF
:10287000112000E0781CCDE9000106A90EA8FFF7A1
:10288000EDFCDDE90F010E9A03910021009207F1A2
:10289000010A04914DE04FF000400097CDE901108E
:1028A00006A90EA8FFF7DAFCDDE90F0203920E9BE2
:1028B00011990022DDF80CA00093049211B9791C43
:1028C00000EB010AB7EB0A0004D4C0F1FF3007F1B6
:1028D000010A0490AAEB0700019044E0012F00DAFE
:1028E00001270021112F01DD112000E03846CDE93C
:1028F000000106A90EA8FFF7B1FCDDE90F010E9A51
:102900000391002104910092BA4621070CD4039947
:10291000514500DA8A46BAF1010F05DD009AAAF1A5
:102920000101515C302908D0B84202DA10F1040FDD
:1029300006DA0121CDE9011015E0AAF10101E9E76C
:10294000002805DC049901440491AAEB000102E08F
:10295000411C514500DD8A460499401A401C0190F3
:102960004FF000400290200704D40198504501DB4D
:10297000CDF8048000208DF84F0002980DF14F072C
:10298000B0F1004F25D02B200E9002984FF0020896
:1029900000280CDA404202902D200E9007E00A2118
:1029A0000298FEF75DF83031029007F8011DB8F18A
:1029B0000001A8F10108F2DC02980028EFD1791E8D
:1029C0000E980870307800F0200040F0450007F8BD
:1029D000020D12A8C01B00F107081498007800B17E
:1029E000012000EB0A01019801EBE07105984144D8
:1029F000401A401E0590E00306D45B462146179A14
:102A0000059800F05DF805441498007818B15A460E
:102A1000179990476D1CE00324D55B462146179A11
:102A2000059800F04DF805441CE00498002807DBE9
:102A3000DDE90301884203DD0098405C179901E05D
:102A4000179930205A469047049805F10105401C1B
:102A500004900198401E019004D12E205A461799E7
:102A600090476D1CBAF10001AAF1010ADDDC05E016
:102A700017F8010B5A46179990476D1CB8F10001E1
:102A8000A8F10108F4DC5B462146179A0598ABE6ED
:102A90002D0000002B000000200000002DE9F04177
:102AA000044600251E461746880404D405E039462E
:102AB0002020B0476D1C641EF9D52846BDE8F08182
:102AC0002DE9F041044600251E469046C80301D575
:102AD000302700E02027880404D505E04146384629
:102AE000B0476D1C641EF9D52846BDE8F0810A6820
:102AF000531C0B601070704731B5104800684FF4DC
:102B00007A71B0FBF1F52846FFF752F8002408E08F
:102B100000BF4FF0E020006900F480300028F8D0BA
:102B2000641C00988442F3D34FF0E020006920F049
:102B300001004FF0E021086138BD000000000020D6
:102B400070B504460D46E1B20548FFF746FB00BFED
:102B500080210348FFF774FA0028F9D0204670BDA1
:102B60000038014008B501210420FEF731FF102094
:102B70008DF80300F620ADF8000003208DF8020068
:102B800069460248FEF7E0FC08BD0000000801406D
:102B9000FFF70EFAFEF7F2FAFEF77EFB012103487B
:102BA000FFF762F8FFF7DEFF00BFFEE7002C0140F1
:102BB0002DE9F04106460F46FEF746F9041E0D4684
:102BC00018BF0120284320F00040C0F17F6000F1D1
:102BD000E040C00F0ED0301C18BF0120384320F059
:102BE0000040C0F17F6000F1E040C00F04BF012051
:102BF000FFF72EFB20462946BDE8F0811C2C00087B
:102C0000000000204C00000030220008682C000862
:102C10004C0000206C1000004022000800A24A0472
:102C2000000000000000000001020304060708097C
:102C30000000000001020304010203040607080962
:102C40000204060800000000000000000000000070
:102C50000000803F000000000000000000000000B5
:082C600000000000000000006C
:0400000508000131BD
:00000001FF
